{
  "_format": "hh-sol-artifact-1",
  "contractName": "MyToken",
  "sourceName": "contracts/MyToken.sol",
  "abi": [
    {
      "inputs": [
        {
          "internalType": "string",
          "name": "_name",
          "type": "string"
        },
        {
          "internalType": "string",
          "name": "_symbol",
          "type": "string"
        },
        {
          "internalType": "uint8",
          "name": "_decimals",
          "type": "uint8"
        },
        {
          "internalType": "uint256",
          "name": "_initialSupply",
          "type": "uint256"
        }
      ],
      "stateMutability": "nonpayable",
      "type": "constructor"
    },
    {
      "anonymous": false,
      "inputs": [
        {
          "indexed": true,
          "internalType": "address",
          "name": "spender",
          "type": "address"
        },
        {
          "indexed": false,
          "internalType": "uint256",
          "name": "value",
          "type": "uint256"
        }
      ],
      "name": "Approval",
      "type": "event"
    },
    {
      "anonymous": false,
      "inputs": [
        {
          "indexed": true,
          "internalType": "address",
          "name": "owner",
          "type": "address"
        },
        {
          "indexed": true,
          "internalType": "address",
          "name": "to",
          "type": "address"
        },
        {
          "indexed": false,
          "internalType": "uint256",
          "name": "value",
          "type": "uint256"
        }
      ],
      "name": "Transfer",
      "type": "event"
    },
    {
      "inputs": [
        {
          "internalType": "address",
          "name": "",
          "type": "address"
        },
        {
          "internalType": "address",
          "name": "",
          "type": "address"
        }
      ],
      "name": "allowance",
      "outputs": [
        {
          "internalType": "uint256",
          "name": "",
          "type": "uint256"
        }
      ],
      "stateMutability": "view",
      "type": "function"
    },
    {
      "inputs": [
        {
          "internalType": "address",
          "name": "spender",
          "type": "address"
        },
        {
          "internalType": "uint256",
          "name": "amount",
          "type": "uint256"
        }
      ],
      "name": "approve",
      "outputs": [
        {
          "internalType": "bool",
          "name": "",
          "type": "bool"
        }
      ],
      "stateMutability": "nonpayable",
      "type": "function"
    },
    {
      "inputs": [
        {
          "internalType": "address",
          "name": "",
          "type": "address"
        }
      ],
      "name": "balanceOf",
      "outputs": [
        {
          "internalType": "uint256",
          "name": "",
          "type": "uint256"
        }
      ],
      "stateMutability": "view",
      "type": "function"
    },
    {
      "inputs": [],
      "name": "decimals",
      "outputs": [
        {
          "internalType": "uint8",
          "name": "",
          "type": "uint8"
        }
      ],
      "stateMutability": "view",
      "type": "function"
    },
    {
      "inputs": [
        {
          "internalType": "uint256",
          "name": "amount",
          "type": "uint256"
        }
      ],
      "name": "faucet",
      "outputs": [],
      "stateMutability": "nonpayable",
      "type": "function"
    },
    {
      "inputs": [],
      "name": "god",
      "outputs": [
        {
          "internalType": "address",
          "name": "",
          "type": "address"
        }
      ],
      "stateMutability": "view",
      "type": "function"
    },
    {
      "inputs": [],
      "name": "manager",
      "outputs": [
        {
          "internalType": "address",
          "name": "",
          "type": "address"
        }
      ],
      "stateMutability": "view",
      "type": "function"
    },
    {
      "inputs": [
        {
          "internalType": "address",
          "name": "owner",
          "type": "address"
        },
        {
          "internalType": "uint256",
          "name": "amount",
          "type": "uint256"
        }
      ],
      "name": "mint",
      "outputs": [],
      "stateMutability": "nonpayable",
      "type": "function"
    },
    {
      "inputs": [],
      "name": "name",
      "outputs": [
        {
          "internalType": "string",
          "name": "",
          "type": "string"
        }
      ],
      "stateMutability": "view",
      "type": "function"
    },
    {
      "inputs": [
        {
          "internalType": "address",
          "name": "newManager",
          "type": "address"
        }
      ],
      "name": "setManager",
      "outputs": [],
      "stateMutability": "nonpayable",
      "type": "function"
    },
    {
      "inputs": [],
      "name": "symbol",
      "outputs": [
        {
          "internalType": "string",
          "name": "",
          "type": "string"
        }
      ],
      "stateMutability": "view",
      "type": "function"
    },
    {
      "inputs": [],
      "name": "totalSupply",
      "outputs": [
        {
          "internalType": "uint256",
          "name": "",
          "type": "uint256"
        }
      ],
      "stateMutability": "view",
      "type": "function"
    },
    {
      "inputs": [
        {
          "internalType": "address",
          "name": "to",
          "type": "address"
        },
        {
          "internalType": "uint256",
          "name": "amount",
          "type": "uint256"
        }
      ],
      "name": "transfer",
      "outputs": [
        {
          "internalType": "bool",
          "name": "",
          "type": "bool"
        }
      ],
      "stateMutability": "nonpayable",
      "type": "function"
    },
    {
      "inputs": [
        {
          "internalType": "address",
          "name": "from",
          "type": "address"
        },
        {
          "internalType": "address",
          "name": "to",
          "type": "address"
        },
        {
          "internalType": "uint256",
          "name": "amount",
          "type": "uint256"
        }
      ],
      "name": "transferFrom",
      "outputs": [
        {
          "internalType": "bool",
          "name": "",
          "type": "bool"
        }
      ],
      "stateMutability": "nonpayable",
      "type": "function"
    }
  ],
  "bytecode": "0x60806040526040518060400160405280600781526020017f4d79546f6b656e00000000000000000000000000000000000000000000000000815250600290816100489190610509565b506040518060400160405280600381526020017f4d544b00000000000000000000000000000000000000000000000000000000008152506003908161008d9190610509565b506012600460006101000a81548160ff021916908360ff1602179055503480156100b657600080fd5b50604051611ce2380380611ce283398181016040528101906100d89190610786565b3333816000806101000a81548173ffffffffffffffffffffffffffffffffffffffff021916908373ffffffffffffffffffffffffffffffffffffffff16021790555080600160006101000a81548173ffffffffffffffffffffffffffffffffffffffff021916908373ffffffffffffffffffffffffffffffffffffffff1602179055505050836002908161016c9190610509565b50826003908161017c9190610509565b5081600460006101000a81548160ff021916908360ff1602179055506000600460009054906101000a900460ff1660ff16600a6101b99190610987565b826101c491906109d2565b90506101d6338261024660201b60201c565b3373ffffffffffffffffffffffffffffffffffffffff16600073ffffffffffffffffffffffffffffffffffffffff167fddf252ad1be2c89b69c2b068fc378daa952ba7f163c4a11628f55a4df523b3ef836040516102349190610a23565b60405180910390a35050505050610a72565b80600560008282546102589190610a3e565b9250508190555080600660008473ffffffffffffffffffffffffffffffffffffffff1673ffffffffffffffffffffffffffffffffffffffff16815260200190815260200160002060008282546102ae9190610a3e565b925050819055505050565b600081519050919050565b7f4e487b7100000000000000000000000000000000000000000000000000000000600052604160045260246000fd5b7f4e487b7100000000000000000000000000000000000000000000000000000000600052602260045260246000fd5b6000600282049050600182168061033a57607f821691505b60208210810361034d5761034c6102f3565b5b50919050565b60008190508160005260206000209050919050565b60006020601f8301049050919050565b600082821b905092915050565b6000600883026103b57fffffffffffffffffffffffffffffffffffffffffffffffffffffffffffffffff82610378565b6103bf8683610378565b95508019841693508086168417925050509392505050565b6000819050919050565b6000819050919050565b60006104066104016103fc846103d7565b6103e1565b6103d7565b9050919050565b6000819050919050565b610420836103eb565b61043461042c8261040d565b848454610385565b825550505050565b600090565b61044961043c565b610454818484610417565b505050565b5b818110156104785761046d600082610441565b60018101905061045a565b5050565b601f8211156104bd5761048e81610353565b61049784610368565b810160208510156104a6578190505b6104ba6104b285610368565b830182610459565b50505b505050565b600082821c905092915050565b60006104e0600019846008026104c2565b1980831691505092915050565b60006104f983836104cf565b9150826002028217905092915050565b610512826102b9565b67ffffffffffffffff81111561052b5761052a6102c4565b5b6105358254610322565b61054082828561047c565b600060209050601f8311600181146105735760008415610561578287015190505b61056b85826104ed565b8655506105d3565b601f19841661058186610353565b60005b828110156105a957848901518255600182019150602085019450602081019050610584565b868310156105c657848901516105c2601f8916826104cf565b8355505b6001600288020188555050505b505050505050565b6000604051905090565b600080fd5b600080fd5b600080fd5b600080fd5b6000601f19601f8301169050919050565b610613826105f9565b810181811067ffffffffffffffff82111715610632576106316102c4565b5b80604052505050565b60006106456105db565b9050610651828261060a565b919050565b600067ffffffffffffffff821115610671576106706102c4565b5b61067a826105f9565b9050602081019050919050565b60005b838110156106a557808201518184015260208101905061068a565b60008484015250505050565b60006106c46106bf84610656565b61063b565b9050828152602081018484840111156106e0576106df6105f4565b5b6106eb848285610687565b509392505050565b600082601f830112610708576107076105ef565b5b81516107188482602086016106b1565b91505092915050565b600060ff82169050919050565b61073781610721565b811461074257600080fd5b50565b6000815190506107548161072e565b92915050565b610763816103d7565b811461076e57600080fd5b50565b6000815190506107808161075a565b92915050565b600080600080608085870312156107a05761079f6105e5565b5b600085015167ffffffffffffffff8111156107be576107bd6105ea565b5b6107ca878288016106f3565b945050602085015167ffffffffffffffff8111156107eb576107ea6105ea565b5b6107f7878288016106f3565b935050604061080887828801610745565b925050606061081987828801610771565b91505092959194509250565b7f4e487b7100000000000000000000000000000000000000000000000000000000600052601160045260246000fd5b60008160011c9050919050565b6000808291508390505b60018511156108ab5780860481111561088757610886610825565b5b60018516156108965780820291505b80810290506108a485610854565b945061086b565b94509492505050565b6000826108c45760019050610980565b816108d25760009050610980565b81600181146108e857600281146108f257610921565b6001915050610980565b60ff84111561090457610903610825565b5b8360020a91508482111561091b5761091a610825565b5b50610980565b5060208310610133831016604e8410600b84101617156109565782820a90508381111561095157610950610825565b5b610980565b6109638484846001610861565b9250905081840481111561097a57610979610825565b5b81810290505b9392505050565b6000610992826103d7565b915061099d836103d7565b92506109ca7fffffffffffffffffffffffffffffffffffffffffffffffffffffffffffffffff84846108b4565b905092915050565b60006109dd826103d7565b91506109e8836103d7565b92508282026109f6816103d7565b91508282048414831517610a0d57610a0c610825565b5b5092915050565b610a1d816103d7565b82525050565b6000602082019050610a386000830184610a14565b92915050565b6000610a49826103d7565b9150610a54836103d7565b9250828201905080821115610a6c57610a6b610825565b5b92915050565b61126180610a816000396000f3fe608060405234801561001057600080fd5b50600436106100ea5760003560e01c8063579158971161008c578063a9059cbb11610066578063a9059cbb1461024d578063ba56f6ee1461027d578063d0ebdbe71461029b578063dd62ed3e146102b7576100ea565b806357915897146101e357806370a08231146101ff57806395d89b411461022f576100ea565b806323b872dd116100c857806323b872dd1461015b578063313ce5671461018b57806340c10f19146101a9578063481c6a75146101c5576100ea565b806306fdde03146100ef578063095ea7b31461010d57806318160ddd1461013d575b600080fd5b6100f76102e7565b6040516101049190610c8f565b60405180910390f35b61012760048036038101906101229190610d4a565b610375565b6040516101349190610da5565b60405180910390f35b610145610450565b6040516101529190610dcf565b60405180910390f35b61017560048036038101906101709190610dea565b610456565b6040516101829190610da5565b60405180910390f35b610193610748565b6040516101a09190610e59565b60405180910390f35b6101c360048036038101906101be9190610d4a565b61075b565b005b6101cd6107f9565b6040516101da9190610e83565b60405180910390f35b6101fd60048036038101906101f89190610e9e565b61081f565b005b61021960048036038101906102149190610ecb565b61082c565b6040516102269190610dcf565b60405180910390f35b610237610844565b6040516102449190610c8f565b60405180910390f35b61026760048036038101906102629190610d4a565b6108d2565b6040516102749190610da5565b60405180910390f35b610285610a71565b6040516102929190610e83565b60405180910390f35b6102b560048036038101906102b09190610ecb565b610a95565b005b6102d160048036038101906102cc9190610ef8565b610b67565b6040516102de9190610dcf565b60405180910390f35b600280546102f490610f67565b80601f016020809104026020016040519081016040528092919081815260200182805461032090610f67565b801561036d5780601f106103425761010080835404028352916020019161036d565b820191906000526020600020905b81548152906001019060200180831161035057829003601f168201915b505050505081565b600081600760003373ffffffffffffffffffffffffffffffffffffffff1673ffffffffffffffffffffffffffffffffffffffff16815260200190815260200160002060008573ffffffffffffffffffffffffffffffffffffffff1673ffffffffffffffffffffffffffffffffffffffff168152602001908152602001600020819055508273ffffffffffffffffffffffffffffffffffffffff167f1e4109814b4fb1210f81ef6540a9bf7e5834ff79536859d16d6398f0e417c44f8360405161043e9190610dcf565b60405180910390a26001905092915050565b60055481565b600081600660008673ffffffffffffffffffffffffffffffffffffffff1673ffffffffffffffffffffffffffffffffffffffff1681526020019081526020016000205410156104da576040517f08c379a00000000000000000000000000000000000000000000000000000000081526004016104d190610fe4565b60405180910390fd5b81600760008673ffffffffffffffffffffffffffffffffffffffff1673ffffffffffffffffffffffffffffffffffffffff16815260200190815260200160002060003373ffffffffffffffffffffffffffffffffffffffff1673ffffffffffffffffffffffffffffffffffffffff168152602001908152602001600020541015610599576040517f08c379a000000000000000000000000000000000000000000000000000000000815260040161059090611050565b60405180910390fd5b81600760008673ffffffffffffffffffffffffffffffffffffffff1673ffffffffffffffffffffffffffffffffffffffff16815260200190815260200160002060003373ffffffffffffffffffffffffffffffffffffffff1673ffffffffffffffffffffffffffffffffffffffff1681526020019081526020016000206000828254610625919061109f565b9250508190555081600660008673ffffffffffffffffffffffffffffffffffffffff1673ffffffffffffffffffffffffffffffffffffffff168152602001908152602001600020600082825461067b919061109f565b9250508190555081600660008573ffffffffffffffffffffffffffffffffffffffff1673ffffffffffffffffffffffffffffffffffffffff16815260200190815260200160002060008282546106d191906110d3565b925050819055508273ffffffffffffffffffffffffffffffffffffffff168473ffffffffffffffffffffffffffffffffffffffff167fddf252ad1be2c89b69c2b068fc378daa952ba7f163c4a11628f55a4df523b3ef846040516107359190610dcf565b60405180910390a3600190509392505050565b600460009054906101000a900460ff1681565b600160009054906101000a900473ffffffffffffffffffffffffffffffffffffffff1673ffffffffffffffffffffffffffffffffffffffff163373ffffffffffffffffffffffffffffffffffffffff16146107eb576040517f08c379a00000000000000000000000000000000000000000000000000000000081526004016107e290611179565b60405180910390fd5b6107f58282610b8c565b5050565b600160009054906101000a900473ffffffffffffffffffffffffffffffffffffffff1681565b6108293382610b8c565b50565b60066020528060005260406000206000915090505481565b6003805461085190610f67565b80601f016020809104026020016040519081016040528092919081815260200182805461087d90610f67565b80156108ca5780601f1061089f576101008083540402835291602001916108ca565b820191906000526020600020905b8154815290600101906020018083116108ad57829003601f168201915b505050505081565b600081600660003373ffffffffffffffffffffffffffffffffffffffff1673ffffffffffffffffffffffffffffffffffffffff168152602001908152602001600020541015610956576040517f08c379a000000000000000000000000000000000000000000000000000000000815260040161094d90610fe4565b60405180910390fd5b81600660003373ffffffffffffffffffffffffffffffffffffffff1673ffffffffffffffffffffffffffffffffffffffff16815260200190815260200160002060008282546109a5919061109f565b9250508190555081600660008573ffffffffffffffffffffffffffffffffffffffff1673ffffffffffffffffffffffffffffffffffffffff16815260200190815260200160002060008282546109fb91906110d3565b925050819055508273ffffffffffffffffffffffffffffffffffffffff163373ffffffffffffffffffffffffffffffffffffffff167fddf252ad1be2c89b69c2b068fc378daa952ba7f163c4a11628f55a4df523b3ef84604051610a5f9190610dcf565b60405180910390a36001905092915050565b60008054906101000a900473ffffffffffffffffffffffffffffffffffffffff1681565b60008054906101000a900473ffffffffffffffffffffffffffffffffffffffff1673ffffffffffffffffffffffffffffffffffffffff163373ffffffffffffffffffffffffffffffffffffffff1614610b23576040517f08c379a0000000000000000000000000000000000000000000000000000000008152600401610b1a9061120b565b60405180910390fd5b80600160006101000a81548173ffffffffffffffffffffffffffffffffffffffff021916908373ffffffffffffffffffffffffffffffffffffffff16021790555050565b6007602052816000526040600020602052806000526040600020600091509150505481565b8060056000828254610b9e91906110d3565b9250508190555080600660008473ffffffffffffffffffffffffffffffffffffffff1673ffffffffffffffffffffffffffffffffffffffff1681526020019081526020016000206000828254610bf491906110d3565b925050819055505050565b600081519050919050565b600082825260208201905092915050565b60005b83811015610c39578082015181840152602081019050610c1e565b60008484015250505050565b6000601f19601f8301169050919050565b6000610c6182610bff565b610c6b8185610c0a565b9350610c7b818560208601610c1b565b610c8481610c45565b840191505092915050565b60006020820190508181036000830152610ca98184610c56565b905092915050565b600080fd5b600073ffffffffffffffffffffffffffffffffffffffff82169050919050565b6000610ce182610cb6565b9050919050565b610cf181610cd6565b8114610cfc57600080fd5b50565b600081359050610d0e81610ce8565b92915050565b6000819050919050565b610d2781610d14565b8114610d3257600080fd5b50565b600081359050610d4481610d1e565b92915050565b60008060408385031215610d6157610d60610cb1565b5b6000610d6f85828601610cff565b9250506020610d8085828601610d35565b9150509250929050565b60008115159050919050565b610d9f81610d8a565b82525050565b6000602082019050610dba6000830184610d96565b92915050565b610dc981610d14565b82525050565b6000602082019050610de46000830184610dc0565b92915050565b600080600060608486031215610e0357610e02610cb1565b5b6000610e1186828701610cff565b9350506020610e2286828701610cff565b9250506040610e3386828701610d35565b9150509250925092565b600060ff82169050919050565b610e5381610e3d565b82525050565b6000602082019050610e6e6000830184610e4a565b92915050565b610e7d81610cd6565b82525050565b6000602082019050610e986000830184610e74565b92915050565b600060208284031215610eb457610eb3610cb1565b5b6000610ec284828501610d35565b91505092915050565b600060208284031215610ee157610ee0610cb1565b5b6000610eef84828501610cff565b91505092915050565b60008060408385031215610f0f57610f0e610cb1565b5b6000610f1d85828601610cff565b9250506020610f2e85828601610cff565b9150509250929050565b7f4e487b7100000000000000000000000000000000000000000000000000000000600052602260045260246000fd5b60006002820490506001821680610f7f57607f821691505b602082108103610f9257610f91610f38565b5b50919050565b7f496e73756666696369656e742062616c616e6365000000000000000000000000600082015250565b6000610fce601483610c0a565b9150610fd982610f98565b602082019050919050565b60006020820190508181036000830152610ffd81610fc1565b9050919050565b7f496e73756666696369656e7420616c6c6f77616e636500000000000000000000600082015250565b600061103a601683610c0a565b915061104582611004565b602082019050919050565b600060208201905081810360008301526110698161102d565b9050919050565b7f4e487b7100000000000000000000000000000000000000000000000000000000600052601160045260246000fd5b60006110aa82610d14565b91506110b583610d14565b92508282039050818111156110cd576110cc611070565b5b92915050565b60006110de82610d14565b91506110e983610d14565b925082820190508082111561110157611100611070565b5b92915050565b7f596f7520617265206e6f7420617574686f72697a656421204f6e6c79206d616e60008201527f616765722063616e2063616c6c20746869732066756e6374696f6e0000000000602082015250565b6000611163603b83610c0a565b915061116e82611107565b604082019050919050565b6000602082019050818103600083015261119281611156565b9050919050565b7f596f7520617265206e6f7420617574686f72697a656421204f6e6c7920676f6460008201527f2063616e2063616c6c20746869732066756e6374696f6e000000000000000000602082015250565b60006111f5603783610c0a565b915061120082611199565b604082019050919050565b60006020820190508181036000830152611224816111e8565b905091905056fea2646970667358221220cbf63721c03bec7b0abc159e5cf941746580d1a9972c81d8108ad5de8b63fa7a64736f6c634300081c0033",
  "linkReferences": {},
  "deployedLinkReferences": {}
}